{
  "_format": "hh-sol-artifact-1",
  "contractName": "EncryptedPrediction",
  "sourceName": "contracts/EncryptedPrediction.sol",
  "abi": [
    {
      "inputs": [
        {
          "internalType": "address",
          "name": "_oracle",
          "type": "address"
        }
      ],
      "stateMutability": "nonpayable",
      "type": "constructor"
    },
    {
      "inputs": [],
      "name": "InvalidShortString",
      "type": "error"
    },
    {
      "inputs": [
        {
          "internalType": "string",
          "name": "str",
          "type": "string"
        }
      ],
      "name": "StringTooLong",
      "type": "error"
    },
    {
      "anonymous": false,
      "inputs": [],
      "name": "EIP712DomainChanged",
      "type": "event"
    },
    {
      "inputs": [
        {
          "internalType": "bytes",
          "name": "evalue",
          "type": "bytes"
        },
        {
          "internalType": "string",
          "name": "name",
          "type": "string"
        },
        {
          "internalType": "uint256",
          "name": "duration",
          "type": "uint256"
        }
      ],
      "name": "addPrediction",
      "outputs": [],
      "stateMutability": "nonpayable",
      "type": "function"
    },
    {
      "inputs": [
        {
          "internalType": "bytes",
          "name": "evalue",
          "type": "bytes"
        },
        {
          "internalType": "string",
          "name": "name",
          "type": "string"
        }
      ],
      "name": "addSimplePred",
      "outputs": [],
      "stateMutability": "nonpayable",
      "type": "function"
    },
    {
      "inputs": [
        {
          "internalType": "uint256",
          "name": "id",
          "type": "uint256"
        }
      ],
      "name": "checkPredictionReward",
      "outputs": [
        {
          "internalType": "uint32",
          "name": "",
          "type": "uint32"
        }
      ],
      "stateMutability": "nonpayable",
      "type": "function"
    },
    {
      "inputs": [],
      "name": "debug",
      "outputs": [
        {
          "internalType": "euint32",
          "name": "",
          "type": "uint256"
        }
      ],
      "stateMutability": "view",
      "type": "function"
    },
    {
      "inputs": [
        {
          "internalType": "uint256",
          "name": "id",
          "type": "uint256"
        }
      ],
      "name": "decryptStrat",
      "outputs": [],
      "stateMutability": "nonpayable",
      "type": "function"
    },
    {
      "inputs": [],
      "name": "eip712Domain",
      "outputs": [
        {
          "internalType": "bytes1",
          "name": "fields",
          "type": "bytes1"
        },
        {
          "internalType": "string",
          "name": "name",
          "type": "string"
        },
        {
          "internalType": "string",
          "name": "version",
          "type": "string"
        },
        {
          "internalType": "uint256",
          "name": "chainId",
          "type": "uint256"
        },
        {
          "internalType": "address",
          "name": "verifyingContract",
          "type": "address"
        },
        {
          "internalType": "bytes32",
          "name": "salt",
          "type": "bytes32"
        },
        {
          "internalType": "uint256[]",
          "name": "extensions",
          "type": "uint256[]"
        }
      ],
      "stateMutability": "view",
      "type": "function"
    },
    {
      "inputs": [
        {
          "internalType": "uint256",
          "name": "id",
          "type": "uint256"
        }
      ],
      "name": "getAddressFromId",
      "outputs": [
        {
          "internalType": "address",
          "name": "",
          "type": "address"
        }
      ],
      "stateMutability": "view",
      "type": "function"
    },
    {
      "inputs": [],
      "name": "getAllPredictions",
      "outputs": [
        {
          "components": [
            {
              "internalType": "address",
              "name": "user",
              "type": "address"
            },
            {
              "internalType": "uint256",
              "name": "Id",
              "type": "uint256"
            },
            {
              "internalType": "uint256",
              "name": "timeStamp",
              "type": "uint256"
            },
            {
              "internalType": "euint32",
              "name": "evaluemin",
              "type": "uint256"
            },
            {
              "internalType": "euint32",
              "name": "evaluemax",
              "type": "uint256"
            },
            {
              "internalType": "euint32",
              "name": "erisk",
              "type": "uint256"
            },
            {
              "internalType": "string",
              "name": "name",
              "type": "string"
            }
          ],
          "internalType": "struct EncryptedPrediction.Predictions[]",
          "name": "",
          "type": "tuple[]"
        }
      ],
      "stateMutability": "view",
      "type": "function"
    },
    {
      "inputs": [
        {
          "internalType": "address",
          "name": "addr",
          "type": "address"
        }
      ],
      "name": "getIDsOfAddress",
      "outputs": [
        {
          "internalType": "uint256[]",
          "name": "",
          "type": "uint256[]"
        }
      ],
      "stateMutability": "view",
      "type": "function"
    },
    {
      "inputs": [
        {
          "internalType": "address",
          "name": "addr",
          "type": "address"
        }
      ],
      "name": "getPredictionsOfAddress",
      "outputs": [
        {
          "components": [
            {
              "internalType": "address",
              "name": "user",
              "type": "address"
            },
            {
              "internalType": "uint256",
              "name": "Id",
              "type": "uint256"
            },
            {
              "internalType": "uint256",
              "name": "timeStamp",
              "type": "uint256"
            },
            {
              "internalType": "euint32",
              "name": "evaluemin",
              "type": "uint256"
            },
            {
              "internalType": "euint32",
              "name": "evaluemax",
              "type": "uint256"
            },
            {
              "internalType": "euint32",
              "name": "erisk",
              "type": "uint256"
            },
            {
              "internalType": "string",
              "name": "name",
              "type": "string"
            }
          ],
          "internalType": "struct EncryptedPrediction.Predictions[]",
          "name": "",
          "type": "tuple[]"
        }
      ],
      "stateMutability": "view",
      "type": "function"
    },
    {
      "inputs": [
        {
          "internalType": "address",
          "name": "user",
          "type": "address"
        }
      ],
      "name": "getScore",
      "outputs": [
        {
          "internalType": "uint32",
          "name": "",
          "type": "uint32"
        }
      ],
      "stateMutability": "view",
      "type": "function"
    },
    {
      "inputs": [
        {
          "internalType": "uint256",
          "name": "id",
          "type": "uint256"
        },
        {
          "internalType": "bytes32",
          "name": "publicKey",
          "type": "bytes32"
        },
        {
          "internalType": "bytes",
          "name": "signature",
          "type": "bytes"
        }
      ],
      "name": "getStrat",
      "outputs": [
        {
          "internalType": "bytes",
          "name": "a",
          "type": "bytes"
        },
        {
          "internalType": "bytes",
          "name": "b",
          "type": "bytes"
        }
      ],
      "stateMutability": "view",
      "type": "function"
    },
    {
      "inputs": [
        {
          "internalType": "address",
          "name": "user",
          "type": "address"
        }
      ],
      "name": "getWhitelisted",
      "outputs": [],
      "stateMutability": "payable",
      "type": "function"
    },
    {
      "inputs": [],
      "name": "oracle",
      "outputs": [
        {
          "internalType": "contract IOracle",
          "name": "",
          "type": "address"
        }
      ],
      "stateMutability": "view",
      "type": "function"
    },
    {
      "inputs": [],
      "name": "owner",
      "outputs": [
        {
          "internalType": "address payable",
          "name": "",
          "type": "address"
        }
      ],
      "stateMutability": "view",
      "type": "function"
    },
    {
      "inputs": [
        {
          "internalType": "uint256",
          "name": "id",
          "type": "uint256"
        }
      ],
      "name": "viewPublicStrat",
      "outputs": [
        {
          "internalType": "uint256",
          "name": "",
          "type": "uint256"
        }
      ],
      "stateMutability": "view",
      "type": "function"
    }
  ],
  "bytecode": "0x6101a06040523480156200001257600080fd5b5060405162002c7238038062002c7283398101604081905262000035916200020f565b6040518060400160405280601381526020017f417574686f72697a6174696f6e20746f6b656e00000000000000000000000000815250604051806040016040528060018152602001603160f81b8152508181620000a26000836200017060201b6200145e1790919060201c565b61012052620000bf81600162000170602090811b6200145e17901c565b61014052815160208084019190912060e052815190820120610100524660a0526200014d60e05161010051604080517f8b73c3c69bb8fe3d512ecc4cf759cc79239f7b179b0ffacaa9a75d522b39400f60208201529081019290925260608201524660808201523060a082015260009060c00160405160208183030381529060405280519060200120905090565b60805250503060c05250506001600160a01b031661018052336101605262000427565b600060208351101562000190576200018883620001c0565b9050620001ba565b82620001a7836200020c60201b620014911760201c565b90620001b49082620002e6565b5060ff90505b92915050565b600080829050601f81511115620001f7578260405163305a27a960e01b8152600401620001ee9190620003b2565b60405180910390fd5b8051620002048262000402565b179392505050565b90565b6000602082840312156200022257600080fd5b81516001600160a01b03811681146200023a57600080fd5b9392505050565b634e487b7160e01b600052604160045260246000fd5b600181811c908216806200026c57607f821691505b6020821081036200028d57634e487b7160e01b600052602260045260246000fd5b50919050565b601f821115620002e157600081815260208120601f850160051c81016020861015620002bc5750805b601f850160051c820191505b81811015620002dd57828155600101620002c8565b5050505b505050565b81516001600160401b0381111562000302576200030262000241565b6200031a8162000313845462000257565b8462000293565b602080601f831160018114620003525760008415620003395750858301515b600019600386901b1c1916600185901b178555620002dd565b600085815260208120601f198616915b82811015620003835788860151825594840194600190910190840162000362565b5085821015620003a25787850151600019600388901b60f8161c191681555b5050505050600190811b01905550565b600060208083528351808285015260005b81811015620003e157858101830151858201604001528201620003c3565b506000604082860101526040601f19601f8301168501019250505092915050565b805160208083015191908110156200028d5760001960209190910360031b1b16919050565b60805160a05160c05160e05161010051610120516101405161016051610180516127c5620004ad6000396000818161023c0152818161094c0152610dab015260008181610298015261064d01526000610d1401526000610cea01526000611d7e01526000611d5601526000611cb101526000611cdb01526000611d0501526127c56000f3fe6080604052600436106100f35760003560e01c806384b0196e1161008a578063d47875d011610059578063d47875d0146102ef578063d6f0e38f1461032b578063dd9d53cb14610358578063df650e6c1461038557600080fd5b806384b0196e1461025e5780638da5cb5b14610286578063b0839284146102ba578063bc1c7285146102da57600080fd5b80635e62268a116100c65780635e62268a1461018757806372166b6b146101bc57806372cc572d1461020a5780637dc0d1d01461022a57600080fd5b8063144b860f146100f85780633f18064a1461012e578063455f72ef14610143578063588ee29b14610163575b600080fd5b34801561010457600080fd5b506101186101133660046120dc565b6103b3565b6040516101259190612155565b60405180910390f35b61014161013c3660046120dc565b6105f2565b005b34801561014f57600080fd5b5061014161015e366004612207565b6106c9565b34801561016f57600080fd5b50610179600a5481565b604051908152602001610125565b34801561019357600080fd5b506101a76101a2366004612207565b61076d565b60405163ffffffff9091168152602001610125565b3480156101c857600080fd5b506101f26101d7366004612207565b6000908152600260205260409020546001600160a01b031690565b6040516001600160a01b039091168152602001610125565b34801561021657600080fd5b50610141610225366004612305565b610a9a565b34801561023657600080fd5b506101f27f000000000000000000000000000000000000000000000000000000000000000081565b34801561026a57600080fd5b50610273610cdc565b60405161012597969594939291906123a9565b34801561029257600080fd5b506101f27f000000000000000000000000000000000000000000000000000000000000000081565b3480156102c657600080fd5b506101416102d5366004612417565b610d64565b3480156102e657600080fd5b50610118611099565b3480156102fb57600080fd5b506101a761030a3660046120dc565b6001600160a01b031660009081526008602052604090205463ffffffff1690565b34801561033757600080fd5b5061034b6103463660046120dc565b6111d7565b6040516101259190612488565b34801561036457600080fd5b50610179610373366004612207565b60009081526006602052604090205490565b34801561039157600080fd5b506103a56103a036600461249b565b611243565b6040516101259291906124ee565b6001600160a01b0381166000908152600460205260408120546060918167ffffffffffffffff8111156103e8576103e8612262565b60405190808252806020026020018201604052801561046257816020015b61044f6040518060e0016040528060006001600160a01b031681526020016000815260200160008152602001600081526020016000815260200160008152602001606081525090565b8152602001906001900390816104065790505b50905060005b828110156105ea576001600160a01b03851660009081526004602052604090208054600991908390811061049e5761049e612513565b9060005260206000200154815481106104b9576104b9612513565b90600052602060002090600702016040518060e00160405290816000820160009054906101000a90046001600160a01b03166001600160a01b03166001600160a01b03168152602001600182015481526020016002820154815260200160038201548152602001600482015481526020016005820154815260200160068201805461054390612529565b80601f016020809104026020016040519081016040528092919081815260200182805461056f90612529565b80156105bc5780601f10610591576101008083540402835291602001916105bc565b820191906000526020600020905b81548152906001019060200180831161059f57829003601f168201915b5050505050815250508282815181106105d7576105d7612513565b6020908102919091010152600101610468565b509392505050565b34670de0b6b3a76400001461060657600080fd5b6040516001600160a01b03821690600090670c7d713b49da00009082818181858883f1935050505015801561063f573d6000803e3d6000fd5b506040516001600160a01b037f0000000000000000000000000000000000000000000000000000000000000000169060009067016345785d8a00009082818181858883f19350505050158015610699573d6000803e3d6000fd5b506001600160a01b031660009081526007602090815260408083203384529091529020805460ff19166001179055565b6000818152600260205260409020546001600160a01b031633146106ec57600080fd5b60026107486107436009848154811061070757610707612513565b9060005260206000209060070201600301546009858154811061072c5761072c612513565b906000526020600020906007020160040154611494565b6114cd565b610752919061258f565b60009182526006602052604090912063ffffffff9091169055565b60008181526005602052604081205460ff16156107d15760405162461bcd60e51b815260206004820152600f60248201527f616c726561647920636c61696d6564000000000000000000000000000000000060448201526064015b60405180910390fd5b6000600983815481106107e6576107e6612513565b90600052602060002090600702016040518060e00160405290816000820160009054906101000a90046001600160a01b03166001600160a01b03166001600160a01b03168152602001600182015481526020016002820154815260200160038201548152602001600482015481526020016005820154815260200160068201805461087090612529565b80601f016020809104026020016040519081016040528092919081815260200182805461089c90612529565b80156108e95780601f106108be576101008083540402835291602001916108e9565b820191906000526020600020905b8154815290600101906020018083116108cc57829003601f168201915b505050505081525050905080604001514210156109485760405162461bcd60e51b815260206004820152600960248201527f746f6f206561726c79000000000000000000000000000000000000000000000060448201526064016107c8565b60007f00000000000000000000000000000000000000000000000000000000000000006001600160a01b03166398d5fdca6040518163ffffffff1660e01b8152600401602060405180830381865afa1580156109a8573d6000803e3d6000fd5b505050506040513d601f19601f820116820180604052508101906109cc91906125b2565b905060006109d9826114d8565b905060006109eb8460800151836114e5565b905060006109fd856060015184611521565b90506000610a0b8383611556565b90506000610a20610743838960a00151611586565b87516001600160a01b0316600090815260086020526040812080549293508392909190610a5490849063ffffffff166125cb565b825463ffffffff9182166101009390930a928302919092021990911617905550600098895260056020526040909820805460ff1916600117905550959695505050505050565b6000610adb84848080601f0160208091040260200160405190810160405280939291908181526020018383808284376000920191909152506115c092505050565b90506000610ae960326114d8565b6009546040805160e0810182523381526020810183905292935090916000918101610b154260646125ef565b8152602001610b2486866115cd565b8152602001610b338686611494565b8152602080820186905260409182018890526009805460018101825560009190915283517f6e1540171b6c0c960b71a7020d9f60077f6af931a8bbf590da0223dacf75c7af6007909202918201805473ffffffffffffffffffffffffffffffffffffffff19166001600160a01b03909216919091178155918401517f6e1540171b6c0c960b71a7020d9f60077f6af931a8bbf590da0223dacf75c7b0820155918301517f6e1540171b6c0c960b71a7020d9f60077f6af931a8bbf590da0223dacf75c7b183015560608301517f6e1540171b6c0c960b71a7020d9f60077f6af931a8bbf590da0223dacf75c7b283015560808301517f6e1540171b6c0c960b71a7020d9f60077f6af931a8bbf590da0223dacf75c7b383015560a08301517f6e1540171b6c0c960b71a7020d9f60077f6af931a8bbf590da0223dacf75c7b483015560c0830151929350839290917f6e1540171b6c0c960b71a7020d9f60077f6af931a8bbf590da0223dacf75c7b50190610cae9082612651565b5050336000908152600460209081526040822080546001810182559083529120019290925550505050505050565b600060608082808083610d0f7f0000000000000000000000000000000000000000000000000000000000000000836115ff565b610d3a7f000000000000000000000000000000000000000000000000000000000000000060016115ff565b60408051600080825260208201909252600f60f81b9b939a50919850469750309650945092509050565b6000610da585858080601f0160208091040260200160405190810160405280939291908181526020018383808284376000920191909152506115c092505050565b905060007f00000000000000000000000000000000000000000000000000000000000000006001600160a01b03166398d5fdca6040518163ffffffff1660e01b8152600401602060405180830381865afa158015610e07573d6000803e3d6000fd5b505050506040513d601f19601f82011682018060405250810190610e2b91906125b2565b90506000610e4e6064610e3f846002612711565b610e499190612728565b6114d8565b90506000610e62610e4984620f4240612728565b90506000610e6f846114d8565b90506000610e99610e8087846114e5565b610e8a88856115cd565b610e94858a6115cd565b6116a3565b90506000610ea784836116c5565b6009546040805160e0810182523381526020810183905292935090916000918101610ed28c426125ef565b8152602001610ee1898c6115cd565b8152602001610ef0898c611494565b8152602080820186905260409182018e9052336000908152600482528281208054600180820183559183528383200187905560098054918201815590915283517f6e1540171b6c0c960b71a7020d9f60077f6af931a8bbf590da0223dacf75c7af6007909202918201805473ffffffffffffffffffffffffffffffffffffffff19166001600160a01b03909216919091178155918401517f6e1540171b6c0c960b71a7020d9f60077f6af931a8bbf590da0223dacf75c7b0820155918301517f6e1540171b6c0c960b71a7020d9f60077f6af931a8bbf590da0223dacf75c7b183015560608301517f6e1540171b6c0c960b71a7020d9f60077f6af931a8bbf590da0223dacf75c7b283015560808301517f6e1540171b6c0c960b71a7020d9f60077f6af931a8bbf590da0223dacf75c7b383015560a08301517f6e1540171b6c0c960b71a7020d9f60077f6af931a8bbf590da0223dacf75c7b483015560c0830151929350839290917f6e1540171b6c0c960b71a7020d9f60077f6af931a8bbf590da0223dacf75c7b501906110879082612651565b50505050505050505050505050505050565b606060006009805480602002602001604051908101604052809291908181526020016000905b828210156111cc5760008481526020908190206040805160e0810182526007860290920180546001600160a01b031683526001810154938301939093526002830154908201526003820154606082015260048201546080820152600582015460a082015260068201805491929160c08401919061113b90612529565b80601f016020809104026020016040519081016040528092919081815260200182805461116790612529565b80156111b45780601f10611189576101008083540402835291602001916111b4565b820191906000526020600020905b81548152906001019060200180831161119757829003601f168201915b505050505081525050815260200190600101906110bf565b509295945050505050565b6001600160a01b038116600090815260046020908152604080832080548251818502810185019093528083526060949383018282801561123657602002820191906000526020600020905b815481526020019060010190808311611222575b5093979650505050505050565b6060808484848080601f0160208091040260200160405190810160405280939291908181526020018383808284376000920182905250604080517f051d137ae0e1fae6e3b6559fed4442b35a85a9a39789838ad5c9ea05e7da2dce60208201529081018790529093506112d192506060019050604051602081830303815290604052805190602001206116f7565b905060006112df8284611724565b90506001600160a01b038116331461135f5760405162461bcd60e51b815260206004820152603160248201527f454950373132207369676e657220616e64207472616e73616374696f6e20736960448201527f676e657220646f206e6f74206d6174636800000000000000000000000000000060648201526084016107c8565b60008a8152600260209081526040808320546001600160a01b0316808452600783528184203385529092529091205460ff16806113a45750336001600160a01b038216145b6113f05760405162461bcd60e51b815260206004820152601060248201527f756e616c6c6f7765642073656e6465720000000000000000000000000000000060448201526064016107c8565b61141e60098c8154811061140657611406612513565b9060005260206000209060070201600301548b611740565b965061144e60098c8154811061143657611436612513565b9060005260206000209060070201600401548b611740565b9550505050505094509492505050565b600060208351101561147a576114738361174c565b905061148b565b816114858482612651565b5060ff90505b92915050565b90565b6000826114a8576114a560006114d8565b92505b816114ba576114b760006114d8565b91505b6114c68383600061178a565b9392505050565b600061148b82611803565b600061148b826002611839565b6000826114f9576114f660006114d8565b92505b8161150b5761150860006114d8565b91505b6114c661151a848460006118a7565b6000611912565b6000826115355761153260006114d8565b92505b816115475761154460006114d8565b91505b6114c661151a84846000611974565b60008261156a5761156760006119df565b92505b8161157c5761157960006119df565b91505b6114c683836119ec565b60008261159a5761159760006119df565b92505b816115ac576115a960006114d8565b91505b6114c66115b884611a38565b836000611a45565b600061148b826002611ab0565b6000826115e1576115de60006114d8565b92505b816115f3576115f060006114d8565b91505b6114c683836000611afc565b606060ff83146116125761147383611b67565b81805461161e90612529565b80601f016020809104026020016040519081016040528092919081815260200182805461164a90612529565b80156116975780601f1061166c57610100808354040283529160200191611697565b820191906000526020600020905b81548152906001019060200180831161167a57829003601f168201915b5050505050905061148b565b6000806116af85611a38565b90506116bc818585611ba6565b95945050505050565b6000826116d9576116d660006114d8565b92505b816116eb576116e860006114d8565b91505b6114c683836000611a45565b600061148b611704611ca4565b8360405161190160f01b8152600281019290925260228201526042902090565b60008060006117338585611dd4565b915091506105ea81611e19565b60606114c68383611f66565b600080829050601f81511115611777578260405163305a27a960e01b81526004016107c8919061273c565b80516117828261274f565b179392505050565b600080821561179e5750600160f81b6117a2565b5060005b60408051602081018790528082018690526001600160f81b03198316606082015281516041818303018152606190910190915280516117df6120a0565b60206041818385878301845afa6117f557600080fd5b505051979650505050505050565b600061180d6120a0565b828152602061181a6120a0565b6020605b81838587845afa61182e57600080fd5b505051949350505050565b6000808360001b8360f81b6040516020016118689291909182526001600160f81b031916602082015260210190565b60408051601f1981840301815291905280519091506118856120a0565b6020604d818385878301845afa61189b57600080fd5b50505195945050505050565b60008082156118bb5750600160f81b6118bf565b5060005b60408051602081018790528082018690526001600160f81b03198316606082015281516041818303018152606190910190915280516118fc6120a0565b60206053818385878301845afa6117f557600080fd5b6000808360001b8360f81b6040516020016119419291909182526001600160f81b031916602082015260210190565b60408051601f19818403018152919052805190915061195e6120a0565b6020604c818385878301845afa61189b57600080fd5b60008082156119885750600160f81b61198c565b5060005b60408051602081018790528082018690526001600160f81b03198316606082015281516041818303018152606190910190915280516119c96120a0565b60206049818385878301845afa6117f557600080fd5b600061148b826000611839565b60408051602081018490528082018390526000606082018190528251604181840301815260619092019092528051611a226120a0565b6020604e818385878301845afa61189b57600080fd5b600061148b826002611912565b6000808215611a595750600160f81b611a5d565b5060005b60408051602081018790528082018690526001600160f81b0319831660608201528151604181830301815260619091019091528051611a9a6120a0565b60206048818385878301845afa6117f557600080fd5b600080838360f81b604051602001611ac9929190612773565b60408051601f198184030181529190528051909150611ae66120a0565b60206042818385878301845afa61189b57600080fd5b6000808215611b105750600160f81b611b14565b5060005b60408051602081018790528082018690526001600160f81b0319831660608201528151604181830301815260619091019091528051611b516120a0565b60206047818385878301845afa6117f557600080fd5b60606000611b7483611fb4565b604080516020808252818301909252919250600091906020820181803683375050509182525060208101929092525090565b60408051602081018490528082018390526000606082018190528251604181840301815260619092019092528051611bdc6120a0565b60206047818385878301845afa611bf257600080fd5b825160408051602081018c9052908101919091526000606082015260610160405160208183030381529060405294508451935060489050611c316120a0565b82818660208901855afa611c4457600080fd5b805160408051602081019290925281018990526000606082015260610160405160208183030381529060405295508551945060419150611c826120a0565b83818760208a01865afa611c9557600080fd5b519a9950505050505050505050565b6000306001600160a01b037f000000000000000000000000000000000000000000000000000000000000000016148015611cfd57507f000000000000000000000000000000000000000000000000000000000000000046145b15611d2757507f000000000000000000000000000000000000000000000000000000000000000090565b611dcf604080517f8b73c3c69bb8fe3d512ecc4cf759cc79239f7b179b0ffacaa9a75d522b39400f60208201527f0000000000000000000000000000000000000000000000000000000000000000918101919091527f000000000000000000000000000000000000000000000000000000000000000060608201524660808201523060a082015260009060c00160405160208183030381529060405280519060200120905090565b905090565b6000808251604103611e0a5760208301516040840151606085015160001a611dfe87828585611fdc565b94509450505050611e12565b506000905060025b9250929050565b6000816004811115611e2d57611e2d6127a2565b03611e355750565b6001816004811115611e4957611e496127a2565b03611e965760405162461bcd60e51b815260206004820152601860248201527f45434453413a20696e76616c6964207369676e6174757265000000000000000060448201526064016107c8565b6002816004811115611eaa57611eaa6127a2565b03611ef75760405162461bcd60e51b815260206004820152601f60248201527f45434453413a20696e76616c6964207369676e6174757265206c656e6774680060448201526064016107c8565b6003816004811115611f0b57611f0b6127a2565b03611f635760405162461bcd60e51b815260206004820152602260248201527f45434453413a20696e76616c6964207369676e6174757265202773272076616c604482015261756560f01b60648201526084016107c8565b50565b6060611f706120be565b8381526020810183905260408051605480825260808201835260208201818036833701905050925060436054848385845afa611fab57600080fd5b50505092915050565b600060ff8216601f81111561148b57604051632cd44ac360e21b815260040160405180910390fd5b6000807f7fffffffffffffffffffffffffffffff5d576e7357a4501ddfe92f46681b20a08311156120135750600090506003612097565b6040805160008082526020820180845289905260ff881692820192909252606081018690526080810185905260019060a0016020604051602081039080840390855afa158015612067573d6000803e3d6000fd5b5050604051601f1901519150506001600160a01b03811661209057600060019250925050612097565b9150600090505b94509492505050565b60405180602001604052806001906020820280368337509192915050565b60405180604001604052806002906020820280368337509192915050565b6000602082840312156120ee57600080fd5b81356001600160a01b03811681146114c657600080fd5b60005b83811015612120578181015183820152602001612108565b50506000910152565b60008151808452612141816020860160208601612105565b601f01601f19169290920160200192915050565b60006020808301818452808551808352604092508286019150828160051b87010184880160005b838110156121f957888303603f19018552815180516001600160a01b0316845287810151888501528681015187850152606080820151908501526080808201519085015260a0808201519085015260c09081015160e0918501829052906121e581860183612129565b96890196945050509086019060010161217c565b509098975050505050505050565b60006020828403121561221957600080fd5b5035919050565b60008083601f84011261223257600080fd5b50813567ffffffffffffffff81111561224a57600080fd5b602083019150836020828501011115611e1257600080fd5b634e487b7160e01b600052604160045260246000fd5b600082601f83011261228957600080fd5b813567ffffffffffffffff808211156122a4576122a4612262565b604051601f8301601f19908116603f011681019082821181831017156122cc576122cc612262565b816040528381528660208588010111156122e557600080fd5b836020870160208301376000602085830101528094505050505092915050565b60008060006040848603121561231a57600080fd5b833567ffffffffffffffff8082111561233257600080fd5b61233e87838801612220565b9095509350602086013591508082111561235757600080fd5b5061236486828701612278565b9150509250925092565b600081518084526020808501945080840160005b8381101561239e57815187529582019590820190600101612382565b509495945050505050565b60ff60f81b8816815260e0602082015260006123c860e0830189612129565b82810360408401526123da8189612129565b90508660608401526001600160a01b03861660808401528460a084015282810360c0840152612409818561236e565b9a9950505050505050505050565b6000806000806060858703121561242d57600080fd5b843567ffffffffffffffff8082111561244557600080fd5b61245188838901612220565b9096509450602087013591508082111561246a57600080fd5b5061247787828801612278565b949793965093946040013593505050565b6020815260006114c6602083018461236e565b600080600080606085870312156124b157600080fd5b8435935060208501359250604085013567ffffffffffffffff8111156124d657600080fd5b6124e287828801612220565b95989497509550505050565b6040815260006125016040830185612129565b82810360208401526116bc8185612129565b634e487b7160e01b600052603260045260246000fd5b600181811c9082168061253d57607f821691505b60208210810361255d57634e487b7160e01b600052602260045260246000fd5b50919050565b634e487b7160e01b600052601260045260246000fd5b634e487b7160e01b600052601160045260246000fd5b600063ffffffff808416806125a6576125a6612563565b92169190910492915050565b6000602082840312156125c457600080fd5b5051919050565b63ffffffff8181168382160190808211156125e8576125e8612579565b5092915050565b8082018082111561148b5761148b612579565b601f82111561264c57600081815260208120601f850160051c810160208610156126295750805b601f850160051c820191505b8181101561264857828155600101612635565b5050505b505050565b815167ffffffffffffffff81111561266b5761266b612262565b61267f816126798454612529565b84612602565b602080601f8311600181146126b4576000841561269c5750858301515b600019600386901b1c1916600185901b178555612648565b600085815260208120601f198616915b828110156126e3578886015182559484019460019091019084016126c4565b50858210156127015787850151600019600388901b60f8161c191681555b5050505050600190811b01905550565b808202811582820484141761148b5761148b612579565b60008261273757612737612563565b500490565b6020815260006114c66020830184612129565b8051602080830151919081101561255d5760001960209190910360031b1b16919050565b60008351612785818460208801612105565b6001600160f81b0319939093169190920190815260010192915050565b634e487b7160e01b600052602160045260246000fdfea164736f6c6343000811000a",
  "linkReferences": {},
  "deployedLinkReferences": {}
}